{
  "_format": "hh3-artifact-1",
  "contractName": "Auction",
  "sourceName": "contracts/auction.sol",
  "abi": [
    {
      "inputs": [
        {
          "internalType": "address",
          "name": "_nftAddress",
          "type": "address"
        }
      ],
      "stateMutability": "nonpayable",
      "type": "constructor"
    },
    {
      "inputs": [
        {
          "internalType": "address",
          "name": "owner",
          "type": "address"
        }
      ],
      "name": "OwnableInvalidOwner",
      "type": "error"
    },
    {
      "inputs": [
        {
          "internalType": "address",
          "name": "account",
          "type": "address"
        }
      ],
      "name": "OwnableUnauthorizedAccount",
      "type": "error"
    },
    {
      "inputs": [],
      "name": "ReentrancyGuardReentrantCall",
      "type": "error"
    },
    {
      "anonymous": false,
      "inputs": [
        {
          "indexed": true,
          "internalType": "uint256",
          "name": "tokenId",
          "type": "uint256"
        },
        {
          "indexed": false,
          "internalType": "uint256",
          "name": "timestamp",
          "type": "uint256"
        }
      ],
      "name": "AuctionStarted",
      "type": "event"
    },
    {
      "anonymous": false,
      "inputs": [
        {
          "indexed": true,
          "internalType": "uint256",
          "name": "tokenId",
          "type": "uint256"
        },
        {
          "indexed": true,
          "internalType": "address",
          "name": "winner",
          "type": "address"
        },
        {
          "indexed": false,
          "internalType": "uint256",
          "name": "timestamp",
          "type": "uint256"
        }
      ],
      "name": "AuctionsClosed",
      "type": "event"
    },
    {
      "anonymous": false,
      "inputs": [
        {
          "indexed": true,
          "internalType": "address",
          "name": "bidder",
          "type": "address"
        },
        {
          "indexed": true,
          "internalType": "uint256",
          "name": "tokenIdTarget",
          "type": "uint256"
        },
        {
          "indexed": false,
          "internalType": "uint256",
          "name": "newBid",
          "type": "uint256"
        },
        {
          "indexed": false,
          "internalType": "uint256",
          "name": "timestamp",
          "type": "uint256"
        }
      ],
      "name": "NewBidPlaced",
      "type": "event"
    },
    {
      "anonymous": false,
      "inputs": [
        {
          "indexed": true,
          "internalType": "address",
          "name": "previousOwner",
          "type": "address"
        },
        {
          "indexed": true,
          "internalType": "address",
          "name": "newOwner",
          "type": "address"
        }
      ],
      "name": "OwnershipTransferred",
      "type": "event"
    },
    {
      "anonymous": false,
      "inputs": [
        {
          "indexed": true,
          "internalType": "uint256",
          "name": "tokenId",
          "type": "uint256"
        },
        {
          "indexed": true,
          "internalType": "address",
          "name": "user",
          "type": "address"
        },
        {
          "indexed": false,
          "internalType": "uint256",
          "name": "timestamp",
          "type": "uint256"
        }
      ],
      "name": "TokenBought",
      "type": "event"
    },
    {
      "anonymous": false,
      "inputs": [
        {
          "indexed": false,
          "internalType": "uint256",
          "name": "amount",
          "type": "uint256"
        }
      ],
      "name": "Withdraw",
      "type": "event"
    },
    {
      "inputs": [
        {
          "internalType": "uint256",
          "name": "",
          "type": "uint256"
        }
      ],
      "name": "activeAuctionsTokenIds",
      "outputs": [
        {
          "internalType": "uint256",
          "name": "",
          "type": "uint256"
        }
      ],
      "stateMutability": "view",
      "type": "function"
    },
    {
      "inputs": [
        {
          "internalType": "uint256",
          "name": "tokenId",
          "type": "uint256"
        }
      ],
      "name": "buyUnsold",
      "outputs": [],
      "stateMutability": "payable",
      "type": "function"
    },
    {
      "inputs": [
        {
          "internalType": "bytes",
          "name": "checkData",
          "type": "bytes"
        }
      ],
      "name": "checkUpkeep",
      "outputs": [
        {
          "internalType": "bool",
          "name": "upkeepNeeded",
          "type": "bool"
        },
        {
          "internalType": "bytes",
          "name": "performData",
          "type": "bytes"
        }
      ],
      "stateMutability": "view",
      "type": "function"
    },
    {
      "inputs": [
        {
          "internalType": "address",
          "name": "",
          "type": "address"
        },
        {
          "internalType": "uint256",
          "name": "",
          "type": "uint256"
        }
      ],
      "name": "clientBidList",
      "outputs": [
        {
          "internalType": "uint256",
          "name": "id",
          "type": "uint256"
        },
        {
          "internalType": "uint256",
          "name": "tokenId",
          "type": "uint256"
        },
        {
          "internalType": "uint256",
          "name": "value",
          "type": "uint256"
        },
        {
          "internalType": "uint256",
          "name": "timestamp",
          "type": "uint256"
        },
        {
          "internalType": "address",
          "name": "bidder",
          "type": "address"
        }
      ],
      "stateMutability": "view",
      "type": "function"
    },
    {
      "inputs": [
        {
          "internalType": "uint256[4]",
          "name": "tokenIds",
          "type": "uint256[4]"
        }
      ],
      "name": "endAuctions",
      "outputs": [],
      "stateMutability": "nonpayable",
      "type": "function"
    },
    {
      "inputs": [],
      "name": "getRandomTokenIds",
      "outputs": [
        {
          "internalType": "uint256[4]",
          "name": "",
          "type": "uint256[4]"
        }
      ],
      "stateMutability": "view",
      "type": "function"
    },
    {
      "inputs": [],
      "name": "getUnsoldldAuctions",
      "outputs": [
        {
          "components": [
            {
              "internalType": "uint256",
              "name": "id",
              "type": "uint256"
            },
            {
              "internalType": "uint256",
              "name": "tokenId",
              "type": "uint256"
            },
            {
              "internalType": "uint256",
              "name": "startTime",
              "type": "uint256"
            },
            {
              "internalType": "uint256",
              "name": "endTime",
              "type": "uint256"
            },
            {
              "components": [
                {
                  "internalType": "uint256",
                  "name": "id",
                  "type": "uint256"
                },
                {
                  "internalType": "uint256",
                  "name": "tokenId",
                  "type": "uint256"
                },
                {
                  "internalType": "uint256",
                  "name": "value",
                  "type": "uint256"
                },
                {
                  "internalType": "uint256",
                  "name": "timestamp",
                  "type": "uint256"
                },
                {
                  "internalType": "address",
                  "name": "bidder",
                  "type": "address"
                }
              ],
              "internalType": "struct Auction.bid",
              "name": "highestBid",
              "type": "tuple"
            },
            {
              "internalType": "enum Auction.auctionState",
              "name": "state",
              "type": "uint8"
            },
            {
              "internalType": "uint256",
              "name": "minBid",
              "type": "uint256"
            },
            {
              "internalType": "address",
              "name": "winner",
              "type": "address"
            },
            {
              "internalType": "uint256",
              "name": "startingPrice",
              "type": "uint256"
            }
          ],
          "internalType": "struct Auction.auction[]",
          "name": "",
          "type": "tuple[]"
        }
      ],
      "stateMutability": "view",
      "type": "function"
    },
    {
      "inputs": [
        {
          "internalType": "address",
          "name": "userAddress",
          "type": "address"
        }
      ],
      "name": "getUserBids",
      "outputs": [
        {
          "components": [
            {
              "internalType": "uint256",
              "name": "id",
              "type": "uint256"
            },
            {
              "internalType": "uint256",
              "name": "tokenId",
              "type": "uint256"
            },
            {
              "internalType": "uint256",
              "name": "value",
              "type": "uint256"
            },
            {
              "internalType": "uint256",
              "name": "timestamp",
              "type": "uint256"
            },
            {
              "internalType": "address",
              "name": "bidder",
              "type": "address"
            }
          ],
          "internalType": "struct Auction.bid[]",
          "name": "",
          "type": "tuple[]"
        }
      ],
      "stateMutability": "view",
      "type": "function"
    },
    {
      "inputs": [],
      "name": "nftContract",
      "outputs": [
        {
          "internalType": "contract INFT",
          "name": "",
          "type": "address"
        }
      ],
      "stateMutability": "view",
      "type": "function"
    },
    {
      "inputs": [],
      "name": "owner",
      "outputs": [
        {
          "internalType": "address",
          "name": "",
          "type": "address"
        }
      ],
      "stateMutability": "view",
      "type": "function"
    },
    {
      "inputs": [
        {
          "internalType": "bytes",
          "name": "performData",
          "type": "bytes"
        }
      ],
      "name": "performUpkeep",
      "outputs": [],
      "stateMutability": "nonpayable",
      "type": "function"
    },
    {
      "inputs": [
        {
          "internalType": "uint256",
          "name": "tokenId",
          "type": "uint256"
        }
      ],
      "name": "placeBid",
      "outputs": [],
      "stateMutability": "payable",
      "type": "function"
    },
    {
      "inputs": [],
      "name": "renounceOwnership",
      "outputs": [],
      "stateMutability": "nonpayable",
      "type": "function"
    },
    {
      "inputs": [
        {
          "internalType": "uint256[4]",
          "name": "tokenIds",
          "type": "uint256[4]"
        }
      ],
      "name": "startAuctions",
      "outputs": [],
      "stateMutability": "nonpayable",
      "type": "function"
    },
    {
      "inputs": [
        {
          "internalType": "uint256",
          "name": "",
          "type": "uint256"
        }
      ],
      "name": "tokenAuction",
      "outputs": [
        {
          "internalType": "uint256",
          "name": "id",
          "type": "uint256"
        },
        {
          "internalType": "uint256",
          "name": "tokenId",
          "type": "uint256"
        },
        {
          "internalType": "uint256",
          "name": "startTime",
          "type": "uint256"
        },
        {
          "internalType": "uint256",
          "name": "endTime",
          "type": "uint256"
        },
        {
          "components": [
            {
              "internalType": "uint256",
              "name": "id",
              "type": "uint256"
            },
            {
              "internalType": "uint256",
              "name": "tokenId",
              "type": "uint256"
            },
            {
              "internalType": "uint256",
              "name": "value",
              "type": "uint256"
            },
            {
              "internalType": "uint256",
              "name": "timestamp",
              "type": "uint256"
            },
            {
              "internalType": "address",
              "name": "bidder",
              "type": "address"
            }
          ],
          "internalType": "struct Auction.bid",
          "name": "highestBid",
          "type": "tuple"
        },
        {
          "internalType": "enum Auction.auctionState",
          "name": "state",
          "type": "uint8"
        },
        {
          "internalType": "uint256",
          "name": "minBid",
          "type": "uint256"
        },
        {
          "internalType": "address",
          "name": "winner",
          "type": "address"
        },
        {
          "internalType": "uint256",
          "name": "startingPrice",
          "type": "uint256"
        }
      ],
      "stateMutability": "view",
      "type": "function"
    },
    {
      "inputs": [
        {
          "internalType": "address",
          "name": "newOwner",
          "type": "address"
        }
      ],
      "name": "transferOwnership",
      "outputs": [],
      "stateMutability": "nonpayable",
      "type": "function"
    },
    {
      "inputs": [
        {
          "internalType": "uint256",
          "name": "",
          "type": "uint256"
        }
      ],
      "name": "unsoldAuctions",
      "outputs": [
        {
          "internalType": "uint256",
          "name": "id",
          "type": "uint256"
        },
        {
          "internalType": "uint256",
          "name": "tokenId",
          "type": "uint256"
        },
        {
          "internalType": "uint256",
          "name": "startTime",
          "type": "uint256"
        },
        {
          "internalType": "uint256",
          "name": "endTime",
          "type": "uint256"
        },
        {
          "components": [
            {
              "internalType": "uint256",
              "name": "id",
              "type": "uint256"
            },
            {
              "internalType": "uint256",
              "name": "tokenId",
              "type": "uint256"
            },
            {
              "internalType": "uint256",
              "name": "value",
              "type": "uint256"
            },
            {
              "internalType": "uint256",
              "name": "timestamp",
              "type": "uint256"
            },
            {
              "internalType": "address",
              "name": "bidder",
              "type": "address"
            }
          ],
          "internalType": "struct Auction.bid",
          "name": "highestBid",
          "type": "tuple"
        },
        {
          "internalType": "enum Auction.auctionState",
          "name": "state",
          "type": "uint8"
        },
        {
          "internalType": "uint256",
          "name": "minBid",
          "type": "uint256"
        },
        {
          "internalType": "address",
          "name": "winner",
          "type": "address"
        },
        {
          "internalType": "uint256",
          "name": "startingPrice",
          "type": "uint256"
        }
      ],
      "stateMutability": "view",
      "type": "function"
    },
    {
      "inputs": [],
      "name": "withdrawAll",
      "outputs": [],
      "stateMutability": "nonpayable",
      "type": "function"
    }
  ],
  "bytecode": "0x60806040526005805463ffffffff1916600a17905534801561001f575f5ffd5b506040516127df3803806127df83398101604081905261003e91610631565b60015f55338061006857604051631e4fbdf760e01b81525f60048201526024015b60405180910390fd5b610071816100a8565b50600280546001600160a01b0319166001600160a01b0383161790555f6100966100f9565b90506100a181610243565b505061082c565b600180546001600160a01b038381166001600160a01b0319831681179093556040519116919082907f8be0079c531659141344cd1fd0a4f28419497f9722a3daafe3b4186f6b6457e0905f90a35050565b610101610613565b610109610613565b5f805b60048260ff1610801561012057506103e881105b1561023b57600254604080516316ddf1a560e21b815290515f926001600160a01b031691635b77c694916004808301926102009291908290030181865afa15801561016d573d5f5f3e3d5ffd5b505050506040513d601f19601f8201168201806040525081019061019191906106c0565b5160408051426020820152908101849052606001604051602081830303815290604052805190602001205f1c6101c7919061076b565b6101d290600161079e565b90505f5f828152600b602052604090206009015460ff1660038111156101fa576101fa6107b7565b036102285780848460ff1660048110610215576102156107cb565b602002015282610224816107df565b9350505b81610232816107fd565b9250505061010c565b509092915050565b5f5b60048160ff16101561060f575f600b5f848460ff166004811061026a5761026a6107cb565b6020908102919091015182528101919091526040015f206009015460ff166003811115610299576102996107b7565b146102fe5760405162461bcd60e51b815260206004820152602f60248201527f412073656c656374656420746f6b656e2068617320616e2061756374696f6e2060448201526e1858dd1a5d99481bdc88195b991959608a1b606482015260840161005f565b60048054905f61030d836107fd565b91905055506040518061012001604052806004548152602001838360ff166004811061033b5761033b6107cb565b6020020151815260200142815260200142610258610359919061079e565b81526020016040518060a001604052806003548152602001858560ff1660048110610386576103866107cb565b602002015181526020015f81526020015f81526020015f6001600160a01b03168152508152602001600160038111156103c1576103c16107b7565b81525f6020820181905260408201526002546060909101906001600160a01b0316631b2a20f58560ff8616600481106103fc576103fc6107cb565b60200201516040518263ffffffff1660e01b815260040161041f91815260200190565b602060405180830381865afa15801561043a573d5f5f3e3d5ffd5b505050506040513d601f19601f8201168201806040525081019061045e9190610815565b9052600b5f8460ff851660048110610478576104786107cb565b602002015181526020019081526020015f205f820151815f01556020820151816001015560408201518160020155606082015181600301556080820151816004015f820151815f01556020820151816001015560408201518160020155606082015181600301556080820151816004015f6101000a8154816001600160a01b0302191690836001600160a01b03160217905550505060a0820151816009015f6101000a81548160ff02191690836003811115610536576105366107b7565b021790555060c0820151600a82015560e0820151600b820180546001600160a01b0319166001600160a01b0390921691909117905561010090910151600c909101558160ff82166004811061058d5761058d6107cb565b602002015160068260ff16600481106105a8576105a86107cb565b01558160ff8216600481106105bf576105bf6107cb565b60200201517ff8910119ddbef5440c54532457dfe8250a10ed39e583292818f44724b9e1344c426040516105f591815260200190565b60405180910390a280610607816107df565b915050610245565b5050565b60405180608001604052806004906020820280368337509192915050565b5f60208284031215610641575f5ffd5b81516001600160a01b0381168114610657575f5ffd5b9392505050565b5f6060828403121561066e575f5ffd5b604051606081016001600160401b038111828210171561069c57634e487b7160e01b5f52604160045260245ffd5b60409081528351825260208085015190830152928301519281019290925250919050565b5f6102008284031280156106d2575f5ffd5b5060405160c081016001600160401b038111828210171561070157634e487b7160e01b5f52604160045260245ffd5b60405282518152610715846020850161065e565b6020820152610727846080850161065e565b60408201526107398460e0850161065e565b606082015261074c84610140850161065e565b608082015261075f846101a0850161065e565b60a08201529392505050565b5f8261078557634e487b7160e01b5f52601260045260245ffd5b500690565b634e487b7160e01b5f52601160045260245ffd5b808201808211156107b1576107b161078a565b92915050565b634e487b7160e01b5f52602160045260245ffd5b634e487b7160e01b5f52603260045260245ffd5b5f60ff821660ff81036107f4576107f461078a565b60010192915050565b5f6001820161080e5761080e61078a565b5060010190565b5f60208284031215610825575f5ffd5b5051919050565b611fa6806108395f395ff3fe608060405260043610610105575f3560e01c80639979ef4511610092578063d56d229d11610062578063d56d229d146102e9578063e343a56114610308578063ec70500d14610327578063ed111e1c1461035b578063f2fde38b14610408575f5ffd5b80639979ef4514610238578063a0d34b511461024b578063b49ceea31461026c578063d4b81d20146102bc575f5ffd5b80636b324fe9116100d85780636b324fe9146101935780636e04ff0d146101b2578063715018a6146101df578063853828b6146101f35780638da5cb5b14610207575f5ffd5b80631d10a9e5146101095780632120b5dd1461011e5780634585e33b146101485780636759789f14610167575b5f5ffd5b61011c6101173660046119dc565b610427565b005b348015610129575f5ffd5b506101326106ab565b60405161013f9190611a5d565b60405180910390f35b348015610153575f5ffd5b5061011c610162366004611b14565b6107fc565b348015610172575f5ffd5b50610186610181366004611b9d565b610853565b60405161013f9190611bbd565b34801561019e575f5ffd5b5061011c6101ad366004611c13565b6108fb565b3480156101bd575f5ffd5b506101d16101cc366004611b14565b610ce9565b60405161013f929190611c8d565b3480156101ea575f5ffd5b5061011c610d3e565b3480156101fe575f5ffd5b5061011c610d51565b348015610212575f5ffd5b506001546001600160a01b03165b6040516001600160a01b03909116815260200161013f565b61011c6102463660046119dc565b610e33565b348015610256575f5ffd5b5061025f6112b7565b60405161013f9190611ccb565b348015610277575f5ffd5b5061028b610286366004611cfb565b611401565b6040805195865260208601949094529284019190915260608301526001600160a01b0316608082015260a00161013f565b3480156102c7575f5ffd5b506102db6102d63660046119dc565b611454565b60405190815260200161013f565b3480156102f4575f5ffd5b50600254610220906001600160a01b031681565b348015610313575f5ffd5b5061011c610322366004611c13565b61146a565b348015610332575f5ffd5b506103466103413660046119dc565b61183a565b60405161013f99989796959493929190611d23565b348015610366575f5ffd5b506103466103753660046119dc565b600b60208181525f9283526040928390208054600182015460028301546003840154875160a081018952600486015481526005860154968101969096526006850154978601979097526007840154606086015260088401546001600160a01b0390811660808701526009850154600a86015497860154600c909601549498939792969395939460ff909116939091169089565b348015610413575f5ffd5b5061011c610422366004611b9d565b6118de565b61042f611918565b5f818152600b602052604090206003600982015460ff16600381111561045757610457611a29565b146104a95760405162461bcd60e51b815260206004820152601b60248201527f546f6b656e2073656c656374656420696e73277420756e736f6c64000000000060448201526064015b60405180910390fd5b600254604051631b2a20f560e01b8152600481018490525f916001600160a01b031690631b2a20f590602401602060405180830381865afa1580156104f0573d5f5f3e3d5ffd5b505050506040513d601f19601f820116820180604052508101906105149190611d87565b9050803410156105765760405162461bcd60e51b815260206004820152602760248201527f4f666665722069736e2774207375706572696f7220746f2070726963652072656044820152661c5d595cdd195960ca1b60648201526084016104a0565b60098201805460ff19166002908117909155600b830180546001600160a01b0319163390811790915590546040516340c10f1960e01b81526004810192909252602482018590526001600160a01b0316906340c10f19906044015f604051808303815f87803b1580156105e7575f5ffd5b505af11580156105f9573d5f5f3e3d5ffd5b505050505f813461060a9190611db2565b90508015610665576040515f90339083908381818185875af1925050503d805f8114610651576040519150601f19603f3d011682016040523d82523d5f602084013e610656565b606091505b5050905080610663575f5ffd5b505b604051428152339085907f787925e050e8cb8dba61a675397ced37ba5304fc76b70c50b62753eed7c9ef649060200160405180910390a35050506106a860015f55565b50565b6060600c805480602002602001604051908101604052809291908181526020015f905b828210156107f3578382905f5260205f2090600d0201604051806101200160405290815f8201548152602001600182015481526020016002820154815260200160038201548152602001600482016040518060a00160405290815f8201548152602001600182015481526020016002820154815260200160038201548152602001600482015f9054906101000a90046001600160a01b03166001600160a01b03166001600160a01b0316815250508152602001600982015f9054906101000a900460ff1660038111156107a3576107a3611a29565b60038111156107b4576107b4611a29565b8152600a820154602080830191909152600b8301546001600160a01b03166040830152600c9092015460609091015290825260019290920191016106ce565b50505050905090565b6006541561083a5760408051608081019182905261083a9160069060049082845b81548152602001906001019080831161081d5750505050506108fb565b5f6108436112b7565b905061084e8161146a565b505050565b6001600160a01b0381165f908152600a60209081526040808320805482518185028101850190935280835260609492939192909184015b828210156108f0575f8481526020908190206040805160a08101825260058602909201805483526001808201548486015260028201549284019290925260038101546060840152600401546001600160a01b03166080830152908352909201910161088a565b505050509050919050565b80515f908152600b602052604090206003015442101561095d5760405162461bcd60e51b815260206004820152601860248201527f41756374696f6e73206e6f74206578706972656420796574000000000000000060448201526064016104a0565b5f5b60048160ff161015610cd2575f600b5f848460ff166004811061098457610984611dcb565b602002015181526020019081526020015f2090505f81600401600201541115610a3d5760098101805460ff191660029081179091556008820154600b830180546001600160a01b0319166001600160a01b03928316908117909155915460018401546040516340c10f1960e01b81526004810194909452602484015216906340c10f19906044015f604051808303815f87803b158015610a22575f5ffd5b505af1158015610a34573d5f5f3e3d5ffd5b50505050610c76565b600981018054600360ff1991821681178355600c8054600181810183555f929092528554600d9091027fdf6966c971051c3d54ec59162606531493a51404a002842f56009d7e5cf4a8c78101918255828701547fdf6966c971051c3d54ec59162606531493a51404a002842f56009d7e5cf4a8c882015560028701547fdf6966c971051c3d54ec59162606531493a51404a002842f56009d7e5cf4a8c9820155838701547fdf6966c971051c3d54ec59162606531493a51404a002842f56009d7e5cf4a8ca82015560048701547fdf6966c971051c3d54ec59162606531493a51404a002842f56009d7e5cf4a8cb82015560058701547fdf6966c971051c3d54ec59162606531493a51404a002842f56009d7e5cf4a8cc82015560068701547fdf6966c971051c3d54ec59162606531493a51404a002842f56009d7e5cf4a8cd82015560078701547fdf6966c971051c3d54ec59162606531493a51404a002842f56009d7e5cf4a8ce82015560088701547fdf6966c971051c3d54ec59162606531493a51404a002842f56009d7e5cf4a8cf820180546001600160a01b0319166001600160a01b0390921691909117905594547fdf6966c971051c3d54ec59162606531493a51404a002842f56009d7e5cf4a8d090950180548796929560ff909316949193921691908490811115610c3757610c37611a29565b0217905550600a8281015490820155600b8083015490820180546001600160a01b0319166001600160a01b03909216919091179055600c918201549101555b600b81015460018201546040514281526001600160a01b03909216917fab0e647e95c000333869aa3a0b876fc4e2b20cdb4607d41353484d5f60b7c2d89060200160405180910390a35080610cca81611ddf565b91505061095f565b505f60068190556007819055600881905560095550565b5f606060068201545f03610cff575f9150610d19565b6006545f908152600b602052604090206003015442101591505b6040805183151560208201520160405160208183030381529060405290509250929050565b610d46611940565b610d4f5f61196d565b565b610d59611940565b475f610d6d6001546001600160a01b031690565b6001600160a01b0316826040515f6040518083038185875af1925050503d805f8114610db4576040519150601f19603f3d011682016040523d82523d5f602084013e610db9565b606091505b5050905080610dfc5760405162461bcd60e51b815260206004820152600f60248201526e15da5d1a191c985dc819985a5b1959608a1b60448201526064016104a0565b6040518281527f5b6b431d4476a211bb7d41c20d1aab9ae2321deee0d20be3d9fc9b1093fa6e3d9060200160405180910390a15050565b610e3b611918565b5f818152600b60205260408082206002549151631b2a20f560e01b8152600481018590529092916001600160a01b031690631b2a20f590602401602060405180830381865afa158015610e90573d5f5f3e3d5ffd5b505050506040513d601f19601f82011682018060405250810190610eb49190611d87565b90506001600983015460ff166003811115610ed157610ed1611a29565b14610f2a5760405162461bcd60e51b815260206004820152602360248201527f41756374696f6e206f6e207468697320746f6b656e2069736e27742072756e6e604482015262696e6760e81b60648201526084016104a0565b81600301544210610f6d5760405162461bcd60e51b815260206004820152600d60248201526c105d58dd1a5bdb88195b991959609a1b60448201526064016104a0565b60088201546001600160a01b03163303610fc95760405162461bcd60e51b815260206004820181905260248201527f596f7520616c726561647920686176652074686520686967686573742062696460448201526064016104a0565b803410156110315760405162461bcd60e51b815260206004820152602f60248201527f426964206d75737420626520657175616c206f72207375706572696f7220746f60448201526e207374617274696e6720707269636560881b60648201526084016104a0565b60068201543410156110985760405162461bcd60e51b815260206004820152602a60248201527f4269642070726f706f7365642069736e2774207375706572696f7220746f20686044820152691a59da195cdd08189a5960b21b60648201526084016104a0565b81600a01543410156110fb5760405162461bcd60e51b815260206004820152602660248201527f4269642070726f706f736564206d7573742062652061626f7665206d696e696d604482015265185b08189a5960d21b60648201526084016104a0565b6005546064906111119063ffffffff1634611dfd565b61111b9190611e28565b6111259034611e3b565b600a830155600882015460068301546001600160a01b039091169080156111a3575f826001600160a01b0316826040515f6040518083038185875af1925050503d805f811461118f576040519150601f19603f3d011682016040523d82523d5f602084013e611194565b606091505b50509050806111a1575f5ffd5b505b505060038054905f6111b483611e4e565b90915550506040805160a08101825260038054808352602080840188905234848601819052426060860181905233608090960186905260048981019485556005808b018c815560068c0185815560078d0185815560088e0180546001600160a01b03199081168d1782555f8d8152600a8b528e8120805460018181018355918352918c90209c5491909702909b019a8b559354948a019490945590546002890155549787019790975554940180549095166001600160a01b0390941693909317909355845192835282015285927f25401eec9816ecf797b09a06e6e870390b9d3ec907fff61d393b38cbe32f0298910160405180910390a350506106a860015f55565b6112bf6119be565b6112c76119be565b5f805b60048260ff161080156112de57506103e881105b156113f957600254604080516316ddf1a560e21b815290515f926001600160a01b031691635b77c694916004808301926102009291908290030181865afa15801561132b573d5f5f3e3d5ffd5b505050506040513d601f19601f8201168201806040525081019061134f9190611ebd565b5160408051426020820152908101849052606001604051602081830303815290604052805190602001205f1c6113859190611f5d565b611390906001611e3b565b90505f5f828152600b602052604090206009015460ff1660038111156113b8576113b8611a29565b036113e65780848460ff16600481106113d3576113d3611dcb565b6020020152826113e281611ddf565b9350505b816113f081611e4e565b925050506112ca565b509092915050565b600a602052815f5260405f20818154811061141a575f80fd5b5f9182526020909120600590910201805460018201546002830154600384015460049094015492955090935091906001600160a01b031685565b60068160048110611463575f80fd5b0154905081565b5f5b60048160ff161015611836575f600b5f848460ff166004811061149157611491611dcb565b6020908102919091015182528101919091526040015f206009015460ff1660038111156114c0576114c0611a29565b146115255760405162461bcd60e51b815260206004820152602f60248201527f412073656c656374656420746f6b656e2068617320616e2061756374696f6e2060448201526e1858dd1a5d99481bdc88195b991959608a1b60648201526084016104a0565b60048054905f61153483611e4e565b91905055506040518061012001604052806004548152602001838360ff166004811061156257611562611dcb565b60200201518152602001428152602001426102586115809190611e3b565b81526020016040518060a001604052806003548152602001858560ff16600481106115ad576115ad611dcb565b602002015181526020015f81526020015f81526020015f6001600160a01b03168152508152602001600160038111156115e8576115e8611a29565b81525f6020820181905260408201526002546060909101906001600160a01b0316631b2a20f58560ff86166004811061162357611623611dcb565b60200201516040518263ffffffff1660e01b815260040161164691815260200190565b602060405180830381865afa158015611661573d5f5f3e3d5ffd5b505050506040513d601f19601f820116820180604052508101906116859190611d87565b9052600b5f8460ff85166004811061169f5761169f611dcb565b602002015181526020019081526020015f205f820151815f01556020820151816001015560408201518160020155606082015181600301556080820151816004015f820151815f01556020820151816001015560408201518160020155606082015181600301556080820151816004015f6101000a8154816001600160a01b0302191690836001600160a01b03160217905550505060a0820151816009015f6101000a81548160ff0219169083600381111561175d5761175d611a29565b021790555060c0820151600a82015560e0820151600b820180546001600160a01b0319166001600160a01b0390921691909117905561010090910151600c909101558160ff8216600481106117b4576117b4611dcb565b602002015160068260ff16600481106117cf576117cf611dcb565b01558160ff8216600481106117e6576117e6611dcb565b60200201517ff8910119ddbef5440c54532457dfe8250a10ed39e583292818f44724b9e1344c4260405161181c91815260200190565b60405180910390a28061182e81611ddf565b91505061146c565b5050565b600c8181548110611849575f80fd5b5f918252602091829020600d9091020180546001820154600283015460038401546040805160a081018252600487015481526005870154978101979097526006860154908701526007850154606087015260088501546001600160a01b0390811660808801526009860154600a870154600b880154600c90980154969950949793969295939460ff9091169390929091169089565b6118e6611940565b6001600160a01b03811661190f57604051631e4fbdf760e01b81525f60048201526024016104a0565b6106a88161196d565b60025f540361193a57604051633ee5aeb560e01b815260040160405180910390fd5b60025f55565b6001546001600160a01b03163314610d4f5760405163118cdaa760e01b81523360048201526024016104a0565b600180546001600160a01b038381166001600160a01b0319831681179093556040519116919082907f8be0079c531659141344cd1fd0a4f28419497f9722a3daafe3b4186f6b6457e0905f90a35050565b60405180608001604052806004906020820280368337509192915050565b5f602082840312156119ec575f5ffd5b5035919050565b805182526020808201519083015260408082015190830152606080820151908301526080908101516001600160a01b0316910152565b634e487b7160e01b5f52602160045260245ffd5b60048110611a5957634e487b7160e01b5f52602160045260245ffd5b9052565b602080825282518282018190525f918401906040840190835b81811015611b09578351805184526020810151602085015260408101516040850152606081015160608501526080810151611ab460808601826119f3565b5060a0810151611ac8610120860182611a3d565b5060c081015161014085015260e08101516001600160a01b03166101608501526101000151610180840152602093909301926101a090920191600101611a76565b509095945050505050565b5f5f60208385031215611b25575f5ffd5b823567ffffffffffffffff811115611b3b575f5ffd5b8301601f81018513611b4b575f5ffd5b803567ffffffffffffffff811115611b61575f5ffd5b856020828401011115611b72575f5ffd5b6020919091019590945092505050565b80356001600160a01b0381168114611b98575f5ffd5b919050565b5f60208284031215611bad575f5ffd5b611bb682611b82565b9392505050565b602080825282518282018190525f918401906040840190835b81811015611b0957611be98385516119f3565b6020939093019260a09290920191600101611bd6565b634e487b7160e01b5f52604160045260245ffd5b5f60808284031215611c23575f5ffd5b82601f830112611c31575f5ffd5b6040516080810167ffffffffffffffff81118282101715611c5457611c54611bff565b604052806080840185811115611c68575f5ffd5b845b81811015611c82578035835260209283019201611c6a565b509195945050505050565b8215158152604060208201525f82518060408401528060208501606085015e5f606082850101526060601f19601f8301168401019150509392505050565b6080810181835f5b6004811015611cf2578151835260209283019290910190600101611cd3565b50505092915050565b5f5f60408385031215611d0c575f5ffd5b611d1583611b82565b946020939093013593505050565b5f6101a0820190508a8252896020830152886040830152876060830152611d4d60808301886119f3565b611d5b610120830187611a3d565b6101408201949094526001600160a01b0392909216610160830152610180909101529695505050505050565b5f60208284031215611d97575f5ffd5b5051919050565b634e487b7160e01b5f52601160045260245ffd5b81810381811115611dc557611dc5611d9e565b92915050565b634e487b7160e01b5f52603260045260245ffd5b5f60ff821660ff8103611df457611df4611d9e565b60010192915050565b8082028115828204841417611dc557611dc5611d9e565b634e487b7160e01b5f52601260045260245ffd5b5f82611e3657611e36611e14565b500490565b80820180821115611dc557611dc5611d9e565b5f60018201611e5f57611e5f611d9e565b5060010190565b5f60608284031215611e76575f5ffd5b6040516060810167ffffffffffffffff81118282101715611e9957611e99611bff565b60409081528351825260208085015190830152928301519281019290925250919050565b5f610200828403128015611ecf575f5ffd5b5060405160c0810167ffffffffffffffff81118282101715611ef357611ef3611bff565b60405282518152611f078460208501611e66565b6020820152611f198460808501611e66565b6040820152611f2b8460e08501611e66565b6060820152611f3e846101408501611e66565b6080820152611f51846101a08501611e66565b60a08201529392505050565b5f82611f6b57611f6b611e14565b50069056fea2646970667358221220eec3418435c45e7085f4f9aeb7d03b2eda46159d0692f45e62e9c28e8249183864736f6c634300081c0033",
  "linkReferences": {},
  "deployedLinkReferences": {},
  "immutableReferences": {},
  "inputSourceName": "project/contracts/auction.sol",
  "buildInfoId": "solc-0_8_28-10d01301dc0f20501dd146f0384d2a2eb199b10c"
}