{
  "_format": "hh3-artifact-1",
  "contractName": "NFT",
  "sourceName": "contracts/nft.sol",
  "abi": [
    {
      "inputs": [
        {
          "internalType": "uint256",
          "name": "basePrice",
          "type": "uint256"
        }
      ],
      "stateMutability": "nonpayable",
      "type": "constructor"
    },
    {
      "inputs": [
        {
          "internalType": "address",
          "name": "sender",
          "type": "address"
        },
        {
          "internalType": "uint256",
          "name": "tokenId",
          "type": "uint256"
        },
        {
          "internalType": "address",
          "name": "owner",
          "type": "address"
        }
      ],
      "name": "ERC721IncorrectOwner",
      "type": "error"
    },
    {
      "inputs": [
        {
          "internalType": "address",
          "name": "operator",
          "type": "address"
        },
        {
          "internalType": "uint256",
          "name": "tokenId",
          "type": "uint256"
        }
      ],
      "name": "ERC721InsufficientApproval",
      "type": "error"
    },
    {
      "inputs": [
        {
          "internalType": "address",
          "name": "approver",
          "type": "address"
        }
      ],
      "name": "ERC721InvalidApprover",
      "type": "error"
    },
    {
      "inputs": [
        {
          "internalType": "address",
          "name": "operator",
          "type": "address"
        }
      ],
      "name": "ERC721InvalidOperator",
      "type": "error"
    },
    {
      "inputs": [
        {
          "internalType": "address",
          "name": "owner",
          "type": "address"
        }
      ],
      "name": "ERC721InvalidOwner",
      "type": "error"
    },
    {
      "inputs": [
        {
          "internalType": "address",
          "name": "receiver",
          "type": "address"
        }
      ],
      "name": "ERC721InvalidReceiver",
      "type": "error"
    },
    {
      "inputs": [
        {
          "internalType": "address",
          "name": "sender",
          "type": "address"
        }
      ],
      "name": "ERC721InvalidSender",
      "type": "error"
    },
    {
      "inputs": [
        {
          "internalType": "uint256",
          "name": "tokenId",
          "type": "uint256"
        }
      ],
      "name": "ERC721NonexistentToken",
      "type": "error"
    },
    {
      "inputs": [
        {
          "internalType": "address",
          "name": "owner",
          "type": "address"
        }
      ],
      "name": "OwnableInvalidOwner",
      "type": "error"
    },
    {
      "inputs": [
        {
          "internalType": "address",
          "name": "account",
          "type": "address"
        }
      ],
      "name": "OwnableUnauthorizedAccount",
      "type": "error"
    },
    {
      "anonymous": false,
      "inputs": [
        {
          "indexed": true,
          "internalType": "address",
          "name": "owner",
          "type": "address"
        },
        {
          "indexed": true,
          "internalType": "address",
          "name": "approved",
          "type": "address"
        },
        {
          "indexed": true,
          "internalType": "uint256",
          "name": "tokenId",
          "type": "uint256"
        }
      ],
      "name": "Approval",
      "type": "event"
    },
    {
      "anonymous": false,
      "inputs": [
        {
          "indexed": true,
          "internalType": "address",
          "name": "owner",
          "type": "address"
        },
        {
          "indexed": true,
          "internalType": "address",
          "name": "operator",
          "type": "address"
        },
        {
          "indexed": false,
          "internalType": "bool",
          "name": "approved",
          "type": "bool"
        }
      ],
      "name": "ApprovalForAll",
      "type": "event"
    },
    {
      "anonymous": false,
      "inputs": [
        {
          "indexed": true,
          "internalType": "address",
          "name": "previousOwner",
          "type": "address"
        },
        {
          "indexed": true,
          "internalType": "address",
          "name": "newOwner",
          "type": "address"
        }
      ],
      "name": "OwnershipTransferred",
      "type": "event"
    },
    {
      "anonymous": false,
      "inputs": [
        {
          "indexed": true,
          "internalType": "address",
          "name": "from",
          "type": "address"
        },
        {
          "indexed": true,
          "internalType": "address",
          "name": "to",
          "type": "address"
        },
        {
          "indexed": true,
          "internalType": "uint256",
          "name": "tokenId",
          "type": "uint256"
        }
      ],
      "name": "Transfer",
      "type": "event"
    },
    {
      "inputs": [
        {
          "internalType": "address",
          "name": "to",
          "type": "address"
        },
        {
          "internalType": "uint256",
          "name": "tokenId",
          "type": "uint256"
        }
      ],
      "name": "approve",
      "outputs": [],
      "stateMutability": "nonpayable",
      "type": "function"
    },
    {
      "inputs": [],
      "name": "auctionContract",
      "outputs": [
        {
          "internalType": "address",
          "name": "",
          "type": "address"
        }
      ],
      "stateMutability": "view",
      "type": "function"
    },
    {
      "inputs": [
        {
          "internalType": "address",
          "name": "owner",
          "type": "address"
        }
      ],
      "name": "balanceOf",
      "outputs": [
        {
          "internalType": "uint256",
          "name": "",
          "type": "uint256"
        }
      ],
      "stateMutability": "view",
      "type": "function"
    },
    {
      "inputs": [],
      "name": "externalBaseURI",
      "outputs": [
        {
          "internalType": "string",
          "name": "",
          "type": "string"
        }
      ],
      "stateMutability": "pure",
      "type": "function"
    },
    {
      "inputs": [
        {
          "internalType": "uint256",
          "name": "tokenId",
          "type": "uint256"
        }
      ],
      "name": "getApproved",
      "outputs": [
        {
          "internalType": "address",
          "name": "",
          "type": "address"
        }
      ],
      "stateMutability": "view",
      "type": "function"
    },
    {
      "inputs": [
        {
          "internalType": "uint256",
          "name": "tokenId",
          "type": "uint256"
        }
      ],
      "name": "getStartingPrice",
      "outputs": [
        {
          "internalType": "uint256",
          "name": "price",
          "type": "uint256"
        }
      ],
      "stateMutability": "view",
      "type": "function"
    },
    {
      "inputs": [
        {
          "internalType": "uint256",
          "name": "tokenId",
          "type": "uint256"
        }
      ],
      "name": "getTokenURIFromId",
      "outputs": [
        {
          "internalType": "string",
          "name": "",
          "type": "string"
        }
      ],
      "stateMutability": "pure",
      "type": "function"
    },
    {
      "inputs": [],
      "name": "increaseAuctionedSupply",
      "outputs": [],
      "stateMutability": "nonpayable",
      "type": "function"
    },
    {
      "inputs": [
        {
          "internalType": "address",
          "name": "owner",
          "type": "address"
        },
        {
          "internalType": "address",
          "name": "operator",
          "type": "address"
        }
      ],
      "name": "isApprovedForAll",
      "outputs": [
        {
          "internalType": "bool",
          "name": "",
          "type": "bool"
        }
      ],
      "stateMutability": "view",
      "type": "function"
    },
    {
      "inputs": [
        {
          "internalType": "address",
          "name": "to",
          "type": "address"
        },
        {
          "internalType": "uint256",
          "name": "tokenId",
          "type": "uint256"
        }
      ],
      "name": "mint",
      "outputs": [],
      "stateMutability": "nonpayable",
      "type": "function"
    },
    {
      "inputs": [],
      "name": "name",
      "outputs": [
        {
          "internalType": "string",
          "name": "",
          "type": "string"
        }
      ],
      "stateMutability": "view",
      "type": "function"
    },
    {
      "inputs": [],
      "name": "owner",
      "outputs": [
        {
          "internalType": "address",
          "name": "",
          "type": "address"
        }
      ],
      "stateMutability": "view",
      "type": "function"
    },
    {
      "inputs": [
        {
          "internalType": "uint256",
          "name": "tokenId",
          "type": "uint256"
        }
      ],
      "name": "ownerOf",
      "outputs": [
        {
          "internalType": "address",
          "name": "",
          "type": "address"
        }
      ],
      "stateMutability": "view",
      "type": "function"
    },
    {
      "inputs": [],
      "name": "renounceOwnership",
      "outputs": [],
      "stateMutability": "nonpayable",
      "type": "function"
    },
    {
      "inputs": [
        {
          "internalType": "address",
          "name": "from",
          "type": "address"
        },
        {
          "internalType": "address",
          "name": "to",
          "type": "address"
        },
        {
          "internalType": "uint256",
          "name": "tokenId",
          "type": "uint256"
        }
      ],
      "name": "safeTransferFrom",
      "outputs": [],
      "stateMutability": "nonpayable",
      "type": "function"
    },
    {
      "inputs": [
        {
          "internalType": "address",
          "name": "from",
          "type": "address"
        },
        {
          "internalType": "address",
          "name": "to",
          "type": "address"
        },
        {
          "internalType": "uint256",
          "name": "tokenId",
          "type": "uint256"
        },
        {
          "internalType": "bytes",
          "name": "data",
          "type": "bytes"
        }
      ],
      "name": "safeTransferFrom",
      "outputs": [],
      "stateMutability": "nonpayable",
      "type": "function"
    },
    {
      "inputs": [
        {
          "internalType": "address",
          "name": "operator",
          "type": "address"
        },
        {
          "internalType": "bool",
          "name": "approved",
          "type": "bool"
        }
      ],
      "name": "setApprovalForAll",
      "outputs": [],
      "stateMutability": "nonpayable",
      "type": "function"
    },
    {
      "inputs": [
        {
          "internalType": "address",
          "name": "newAuctionAddress",
          "type": "address"
        }
      ],
      "name": "setAuctionContract",
      "outputs": [],
      "stateMutability": "nonpayable",
      "type": "function"
    },
    {
      "inputs": [],
      "name": "supplyStats",
      "outputs": [
        {
          "internalType": "uint256",
          "name": "total",
          "type": "uint256"
        },
        {
          "internalType": "uint256",
          "name": "auctionedSupply",
          "type": "uint256"
        },
        {
          "components": [
            {
              "internalType": "uint256",
              "name": "supply",
              "type": "uint256"
            },
            {
              "internalType": "uint256",
              "name": "availableSupply",
              "type": "uint256"
            },
            {
              "internalType": "uint256",
              "name": "startingPrice",
              "type": "uint256"
            }
          ],
          "internalType": "struct NFT.rarityStats",
          "name": "Common",
          "type": "tuple"
        },
        {
          "components": [
            {
              "internalType": "uint256",
              "name": "supply",
              "type": "uint256"
            },
            {
              "internalType": "uint256",
              "name": "availableSupply",
              "type": "uint256"
            },
            {
              "internalType": "uint256",
              "name": "startingPrice",
              "type": "uint256"
            }
          ],
          "internalType": "struct NFT.rarityStats",
          "name": "Uncommon",
          "type": "tuple"
        },
        {
          "components": [
            {
              "internalType": "uint256",
              "name": "supply",
              "type": "uint256"
            },
            {
              "internalType": "uint256",
              "name": "availableSupply",
              "type": "uint256"
            },
            {
              "internalType": "uint256",
              "name": "startingPrice",
              "type": "uint256"
            }
          ],
          "internalType": "struct NFT.rarityStats",
          "name": "Rare",
          "type": "tuple"
        },
        {
          "components": [
            {
              "internalType": "uint256",
              "name": "supply",
              "type": "uint256"
            },
            {
              "internalType": "uint256",
              "name": "availableSupply",
              "type": "uint256"
            },
            {
              "internalType": "uint256",
              "name": "startingPrice",
              "type": "uint256"
            }
          ],
          "internalType": "struct NFT.rarityStats",
          "name": "Epic",
          "type": "tuple"
        },
        {
          "components": [
            {
              "internalType": "uint256",
              "name": "supply",
              "type": "uint256"
            },
            {
              "internalType": "uint256",
              "name": "availableSupply",
              "type": "uint256"
            },
            {
              "internalType": "uint256",
              "name": "startingPrice",
              "type": "uint256"
            }
          ],
          "internalType": "struct NFT.rarityStats",
          "name": "Legendary",
          "type": "tuple"
        }
      ],
      "stateMutability": "view",
      "type": "function"
    },
    {
      "inputs": [
        {
          "internalType": "bytes4",
          "name": "interfaceId",
          "type": "bytes4"
        }
      ],
      "name": "supportsInterface",
      "outputs": [
        {
          "internalType": "bool",
          "name": "",
          "type": "bool"
        }
      ],
      "stateMutability": "view",
      "type": "function"
    },
    {
      "inputs": [],
      "name": "symbol",
      "outputs": [
        {
          "internalType": "string",
          "name": "",
          "type": "string"
        }
      ],
      "stateMutability": "view",
      "type": "function"
    },
    {
      "inputs": [
        {
          "internalType": "uint256",
          "name": "tokenId",
          "type": "uint256"
        }
      ],
      "name": "tokenURI",
      "outputs": [
        {
          "internalType": "string",
          "name": "",
          "type": "string"
        }
      ],
      "stateMutability": "view",
      "type": "function"
    },
    {
      "inputs": [
        {
          "internalType": "address",
          "name": "from",
          "type": "address"
        },
        {
          "internalType": "address",
          "name": "to",
          "type": "address"
        },
        {
          "internalType": "uint256",
          "name": "tokenId",
          "type": "uint256"
        }
      ],
      "name": "transferFrom",
      "outputs": [],
      "stateMutability": "nonpayable",
      "type": "function"
    },
    {
      "inputs": [
        {
          "internalType": "address",
          "name": "newOwner",
          "type": "address"
        }
      ],
      "name": "transferOwnership",
      "outputs": [],
      "stateMutability": "nonpayable",
      "type": "function"
    }
  ],
  "bytecode": "0x608060405234801561000f575f5ffd5b5060405161198a38038061198a83398101604081905261002e91610289565b336040518060400160405280601381526020017f446e41204e46547320436f6c6c656374696f6e0000000000000000000000000081525060405180604001604052806003815260200162446e4160e81b815250815f908161008f9190610338565b50600161009c8282610338565b5050506001600160a01b0381166100cd57604051631e4fbdf760e01b81525f60048201526024015b60405180910390fd5b6100d681610238565b505f81116101165760405162461bcd60e51b815260206004820152600d60248201526c496e76616c696420707269636560981b60448201526064016100c4565b60f86007555f6008556040805160608082018352607c80835260208084018290529284018590526009819055600a55600b84905582519081018352603e8082529181019190915290810161016b8360026103f2565b90528051600c55602080820151600d55604091820151600e5581516060810183526022808252918101919091529081016101a68360046103f2565b90528051600f5560208082015160105560409182015160115581516060810183526012808252918101919091529081016101e18360086103f2565b905280516012556020808201516013556040918201516014558151606081018352600a8082529181019190915290810161021c8360106103f2565b905280516015556020810151601655604001516017555061041b565b600680546001600160a01b038381166001600160a01b0319831681179093556040519116919082907f8be0079c531659141344cd1fd0a4f28419497f9722a3daafe3b4186f6b6457e0905f90a35050565b5f60208284031215610299575f5ffd5b5051919050565b634e487b7160e01b5f52604160045260245ffd5b600181811c908216806102c857607f821691505b6020821081036102e657634e487b7160e01b5f52602260045260245ffd5b50919050565b601f82111561033357805f5260205f20601f840160051c810160208510156103115750805b601f840160051c820191505b81811015610330575f815560010161031d565b50505b505050565b81516001600160401b03811115610351576103516102a0565b6103658161035f84546102b4565b846102ec565b6020601f821160018114610397575f83156103805750848201515b5f19600385901b1c1916600184901b178455610330565b5f84815260208120601f198516915b828110156103c657878501518255602094850194600190920191016103a6565b50848210156103e357868401515f19600387901b60f8161c191681555b50505050600190811b01905550565b808202811582820484141761041557634e487b7160e01b5f52601160045260245ffd5b92915050565b611562806104285f395ff3fe608060405234801561000f575f5ffd5b5060043610610153575f3560e01c80636352211e116100bf578063a22cb46511610079578063a22cb4651461036e578063ae8d070b14610381578063b88d4fde14610389578063c87b56dd1461039c578063e985e9c5146103af578063f2fde38b146103c2575f5ffd5b80636352211e1461031f57806370a0823114610332578063715018a614610345578063891145ab1461034d5780638da5cb5b1461035557806395d89b4114610366575f5ffd5b80630c04090f116101105780630c04090f146101fa5780631b2a20f51461020d57806323b872dd1461022e57806340c10f191461024157806342842e0e146102545780635b77c69414610267575f5ffd5b806301ffc9a714610157578063023924c71461017f57806306fdde0314610194578063081812fc146101a9578063095ea7b3146101d45780630ab8afac146101e7575b5f5ffd5b61016a6101653660046110b1565b6103d5565b60405190151581526020015b60405180910390f35b61019261018d3660046110e7565b610426565b005b61019c6104ab565b604051610176919061112e565b6101bc6101b7366004611140565b61053a565b6040516001600160a01b039091168152602001610176565b6101926101e2366004611157565b610561565b6018546101bc906001600160a01b031681565b61019c610208366004611140565b610570565b61022061021b366004611140565b6105cb565b604051908152602001610176565b61019261023c36600461117f565b610600565b61019261024f366004611157565b610689565b61019261026236600461117f565b610705565b60075460085460408051606080820183526009548252600a54602080840191909152600b548385015283518083018552600c548152600d5481830152600e548186015284518084018652600f54815260105481840152601154818701528551808501875260125481526013548185015260145481880152865194850187526015548552601654938501939093526017549584019590955261030c969594909290919087565b60405161017697969594939291906111b9565b6101bc61032d366004611140565b61071f565b6102206103403660046110e7565b610729565b61019261076e565b610192610781565b6006546001600160a01b03166101bc565b61019c6107e2565b61019261037c366004611262565b6107f1565b61019c6107fc565b6101926103973660046112af565b61080b565b61019c6103aa366004611140565b610823565b61016a6103bd36600461138c565b610838565b6101926103d03660046110e7565b610865565b5f6001600160e01b031982166380ac58cd60e01b148061040557506001600160e01b03198216635b5e139f60e01b145b8061042057506301ffc9a760e01b6001600160e01b03198316145b92915050565b61042e6108a2565b6001600160a01b0381166104895760405162461bcd60e51b815260206004820152601860248201527f5a65726f2061646472657373206e6f7420616c6c6f776564000000000000000060448201526064015b60405180910390fd5b601880546001600160a01b0319166001600160a01b0392909216919091179055565b60605f80546104b9906113bd565b80601f01602080910402602001604051908101604052809291908181526020018280546104e5906113bd565b80156105305780601f1061050757610100808354040283529160200191610530565b820191905f5260205f20905b81548152906001019060200180831161051357829003601f168201915b5050505050905090565b5f610544826108cf565b505f828152600460205260409020546001600160a01b0316610420565b61056c828233610907565b5050565b60605f61057b610914565b90505f8151116105995760405180602001604052805f8152506105c4565b806105a384610934565b6040516020016105b492919061140c565b6040516020818303038152906040525b9392505050565b5f5f6105d6836109c4565b60408051606081018252825481526001830154602082015260029092015491018190529392505050565b6001600160a01b03821661062957604051633250574960e11b81525f6004820152602401610480565b5f610635838333610a5f565b9050836001600160a01b0316816001600160a01b031614610683576040516364283d7b60e01b81526001600160a01b0380861660048301526024820184905282166044820152606401610480565b50505050565b6018546001600160a01b031633146106d45760405162461bcd60e51b815260206004820152600e60248201526d139bdd08185d5d1a1bdc9a5e995960921b6044820152606401610480565b5f6106de826109c4565b6001810180549192505f6106f18361144a565b91905055506107008383610b51565b505050565b61070083838360405180602001604052805f81525061080b565b5f610420826108cf565b5f6001600160a01b038216610753576040516322718ad960e21b81525f6004820152602401610480565b506001600160a01b03165f9081526003602052604090205490565b6107766108a2565b61077f5f610b6a565b565b6018546001600160a01b031633146107cc5760405162461bcd60e51b815260206004820152600e60248201526d139bdd08185d5d1a1bdc9a5e995960921b6044820152606401610480565b60088054905f6107db8361145f565b9190505550565b6060600180546104b9906113bd565b61056c338383610bbb565b6060610806610914565b905090565b610816848484610600565b6106833385858585610c59565b606061082e826108cf565b5061042082610570565b6001600160a01b039182165f90815260056020908152604080832093909416825291909152205460ff1690565b61086d6108a2565b6001600160a01b03811661089657604051631e4fbdf760e01b81525f6004820152602401610480565b61089f81610b6a565b50565b6006546001600160a01b0316331461077f5760405163118cdaa760e01b8152336004820152602401610480565b5f818152600260205260408120546001600160a01b03168061042057604051637e27328960e01b815260048101849052602401610480565b6107008383836001610d81565b60606040518060800160405280605e81526020016114cf605e9139905090565b60605f61094083610e85565b60010190505f8167ffffffffffffffff81111561095f5761095f61129b565b6040519080825280601f01601f191660200182016040528015610989576020820181803683370190505b5090508181016020015b5f19016f181899199a1a9b1b9c1cb0b131b232b360811b600a86061a8153600a850494508461099357509392505050565b5f5f821180156109d5575060f88211155b610a135760405162461bcd60e51b815260206004820152600f60248201526e125b9d985b1a5908151bdad95b9259608a1b6044820152606401610480565b607c821115610a2457506009919050565b603e821115610a355750600c919050565b601c821115610a465750600f919050565b600a821115610a5757506012919050565b506015919050565b5f828152600260205260408120546001600160a01b0390811690831615610a8b57610a8b818486610f5c565b6001600160a01b03811615610ac557610aa65f855f5f610d81565b6001600160a01b0381165f90815260036020526040902080545f190190555b6001600160a01b03851615610af3576001600160a01b0385165f908152600360205260409020805460010190555b5f8481526002602052604080822080546001600160a01b0319166001600160a01b0389811691821790925591518793918516917fddf252ad1be2c89b69c2b068fc378daa952ba7f163c4a11628f55a4df523b3ef91a4949350505050565b61056c828260405180602001604052805f815250610fc0565b600680546001600160a01b038381166001600160a01b0319831681179093556040519116919082907f8be0079c531659141344cd1fd0a4f28419497f9722a3daafe3b4186f6b6457e0905f90a35050565b6001600160a01b038216610bed57604051630b61174360e31b81526001600160a01b0383166004820152602401610480565b6001600160a01b038381165f81815260056020908152604080832094871680845294825291829020805460ff191686151590811790915591519182527f17307eab39ab6107e8899845ad3d59bd9653f200f220920489ca2b5937696c31910160405180910390a3505050565b6001600160a01b0383163b15610d7a57604051630a85bd0160e11b81526001600160a01b0384169063150b7a0290610c9b908890889087908790600401611477565b6020604051808303815f875af1925050508015610cd5575060408051601f3d908101601f19168201909252610cd2918101906114b3565b60015b610d3c573d808015610d02576040519150601f19603f3d011682016040523d82523d5f602084013e610d07565b606091505b5080515f03610d3457604051633250574960e11b81526001600160a01b0385166004820152602401610480565b805160208201fd5b6001600160e01b03198116630a85bd0160e11b14610d7857604051633250574960e11b81526001600160a01b0385166004820152602401610480565b505b5050505050565b8080610d9557506001600160a01b03821615155b15610e56575f610da4846108cf565b90506001600160a01b03831615801590610dd05750826001600160a01b0316816001600160a01b031614155b8015610de35750610de18184610838565b155b15610e0c5760405163a9fbf51f60e01b81526001600160a01b0384166004820152602401610480565b8115610e545783856001600160a01b0316826001600160a01b03167f8c5be1e5ebec7d5bd14f71427d1e84f3dd0314c0f7b2291e5b200ac8c7c3b92560405160405180910390a45b505b50505f90815260046020526040902080546001600160a01b0319166001600160a01b0392909216919091179055565b5f8072184f03e93ff9f4daa797ed6e38ed64bf6a1f0160401b8310610ec35772184f03e93ff9f4daa797ed6e38ed64bf6a1f0160401b830492506040015b6d04ee2d6d415b85acef81000000008310610eef576d04ee2d6d415b85acef8100000000830492506020015b662386f26fc100008310610f0d57662386f26fc10000830492506010015b6305f5e1008310610f25576305f5e100830492506008015b6127108310610f3957612710830492506004015b60648310610f4b576064830492506002015b600a83106104205760010192915050565b610f67838383610fd7565b610700576001600160a01b038316610f9557604051637e27328960e01b815260048101829052602401610480565b60405163177e802f60e01b81526001600160a01b038316600482015260248101829052604401610480565b610fca838361103b565b610700335f858585610c59565b5f6001600160a01b038316158015906110335750826001600160a01b0316846001600160a01b0316148061101057506110108484610838565b8061103357505f828152600460205260409020546001600160a01b038481169116145b949350505050565b6001600160a01b03821661106457604051633250574960e11b81525f6004820152602401610480565b5f61107083835f610a5f565b90506001600160a01b03811615610700576040516339e3563760e11b81525f6004820152602401610480565b6001600160e01b03198116811461089f575f5ffd5b5f602082840312156110c1575f5ffd5b81356105c48161109c565b80356001600160a01b03811681146110e2575f5ffd5b919050565b5f602082840312156110f7575f5ffd5b6105c4826110cc565b5f81518084528060208401602086015e5f602082860101526020601f19601f83011685010191505092915050565b602081525f6105c46020830184611100565b5f60208284031215611150575f5ffd5b5035919050565b5f5f60408385031215611168575f5ffd5b611171836110cc565b946020939093013593505050565b5f5f5f60608486031215611191575f5ffd5b61119a846110cc565b92506111a8602085016110cc565b929592945050506040919091013590565b8781526020810187905261022081016111e960408301888051825260208082015190830152604090810151910152565b855160a083015260208087015160c084015260409687015160e084015285516101008401528581015161012084015294860151610140830152835161016083015283850151610180830152928501516101a082015281516101c0820152928101516101e084015290920151610200909101529392505050565b5f5f60408385031215611273575f5ffd5b61127c836110cc565b915060208301358015158114611290575f5ffd5b809150509250929050565b634e487b7160e01b5f52604160045260245ffd5b5f5f5f5f608085870312156112c2575f5ffd5b6112cb856110cc565b93506112d9602086016110cc565b925060408501359150606085013567ffffffffffffffff8111156112fb575f5ffd5b8501601f8101871361130b575f5ffd5b803567ffffffffffffffff8111156113255761132561129b565b604051601f8201601f19908116603f0116810167ffffffffffffffff811182821017156113545761135461129b565b60405281815282820160200189101561136b575f5ffd5b816020840160208301375f6020838301015280935050505092959194509250565b5f5f6040838503121561139d575f5ffd5b6113a6836110cc565b91506113b4602084016110cc565b90509250929050565b600181811c908216806113d157607f821691505b6020821081036113ef57634e487b7160e01b5f52602260045260245ffd5b50919050565b5f81518060208401855e5f93019283525090919050565b5f61142061141a83866113f5565b846113f5565b64173539b7b760d91b8152600501949350505050565b634e487b7160e01b5f52601160045260245ffd5b5f8161145857611458611436565b505f190190565b5f6001820161147057611470611436565b5060010190565b6001600160a01b03858116825284166020820152604081018390526080606082018190525f906114a990830184611100565b9695505050505050565b5f602082840312156114c3575f5ffd5b81516105c48161109c56fe68747470733a2f2f7365637265742d76696f6c65742d7772656e2e6d7966696c65626173652e636f6d2f697066732f516d66357033364a66444b6a3154687141426a5033655753714e4d374b4242417a446e42686f75553145425447632fa264697066735822122072121133f51b0ce5473d208c4d6f3a0a0af88106a1581f37b924ee2814caa21064736f6c634300081c0033",
  "linkReferences": {},
  "deployedLinkReferences": {},
  "immutableReferences": {},
  "inputSourceName": "project/contracts/nft.sol",
  "buildInfoId": "solc-0_8_28-3dd7e7e4e514eb7f533573e7225b0718abb39e46"
}