{
  "_format": "hh3-artifact-1",
  "contractName": "NFT",
  "sourceName": "contracts/nft.sol",
  "abi": [
    {
      "inputs": [
        {
          "internalType": "uint256",
          "name": "basePrice",
          "type": "uint256"
        }
      ],
      "stateMutability": "nonpayable",
      "type": "constructor"
    },
    {
      "inputs": [
        {
          "internalType": "address",
          "name": "sender",
          "type": "address"
        },
        {
          "internalType": "uint256",
          "name": "tokenId",
          "type": "uint256"
        },
        {
          "internalType": "address",
          "name": "owner",
          "type": "address"
        }
      ],
      "name": "ERC721IncorrectOwner",
      "type": "error"
    },
    {
      "inputs": [
        {
          "internalType": "address",
          "name": "operator",
          "type": "address"
        },
        {
          "internalType": "uint256",
          "name": "tokenId",
          "type": "uint256"
        }
      ],
      "name": "ERC721InsufficientApproval",
      "type": "error"
    },
    {
      "inputs": [
        {
          "internalType": "address",
          "name": "approver",
          "type": "address"
        }
      ],
      "name": "ERC721InvalidApprover",
      "type": "error"
    },
    {
      "inputs": [
        {
          "internalType": "address",
          "name": "operator",
          "type": "address"
        }
      ],
      "name": "ERC721InvalidOperator",
      "type": "error"
    },
    {
      "inputs": [
        {
          "internalType": "address",
          "name": "owner",
          "type": "address"
        }
      ],
      "name": "ERC721InvalidOwner",
      "type": "error"
    },
    {
      "inputs": [
        {
          "internalType": "address",
          "name": "receiver",
          "type": "address"
        }
      ],
      "name": "ERC721InvalidReceiver",
      "type": "error"
    },
    {
      "inputs": [
        {
          "internalType": "address",
          "name": "sender",
          "type": "address"
        }
      ],
      "name": "ERC721InvalidSender",
      "type": "error"
    },
    {
      "inputs": [
        {
          "internalType": "uint256",
          "name": "tokenId",
          "type": "uint256"
        }
      ],
      "name": "ERC721NonexistentToken",
      "type": "error"
    },
    {
      "inputs": [
        {
          "internalType": "address",
          "name": "owner",
          "type": "address"
        }
      ],
      "name": "OwnableInvalidOwner",
      "type": "error"
    },
    {
      "inputs": [
        {
          "internalType": "address",
          "name": "account",
          "type": "address"
        }
      ],
      "name": "OwnableUnauthorizedAccount",
      "type": "error"
    },
    {
      "anonymous": false,
      "inputs": [
        {
          "indexed": true,
          "internalType": "address",
          "name": "owner",
          "type": "address"
        },
        {
          "indexed": true,
          "internalType": "address",
          "name": "approved",
          "type": "address"
        },
        {
          "indexed": true,
          "internalType": "uint256",
          "name": "tokenId",
          "type": "uint256"
        }
      ],
      "name": "Approval",
      "type": "event"
    },
    {
      "anonymous": false,
      "inputs": [
        {
          "indexed": true,
          "internalType": "address",
          "name": "owner",
          "type": "address"
        },
        {
          "indexed": true,
          "internalType": "address",
          "name": "operator",
          "type": "address"
        },
        {
          "indexed": false,
          "internalType": "bool",
          "name": "approved",
          "type": "bool"
        }
      ],
      "name": "ApprovalForAll",
      "type": "event"
    },
    {
      "anonymous": false,
      "inputs": [
        {
          "indexed": true,
          "internalType": "address",
          "name": "previousOwner",
          "type": "address"
        },
        {
          "indexed": true,
          "internalType": "address",
          "name": "newOwner",
          "type": "address"
        }
      ],
      "name": "OwnershipTransferred",
      "type": "event"
    },
    {
      "anonymous": false,
      "inputs": [
        {
          "indexed": true,
          "internalType": "address",
          "name": "from",
          "type": "address"
        },
        {
          "indexed": true,
          "internalType": "address",
          "name": "to",
          "type": "address"
        },
        {
          "indexed": true,
          "internalType": "uint256",
          "name": "tokenId",
          "type": "uint256"
        }
      ],
      "name": "Transfer",
      "type": "event"
    },
    {
      "inputs": [
        {
          "internalType": "address",
          "name": "to",
          "type": "address"
        },
        {
          "internalType": "uint256",
          "name": "tokenId",
          "type": "uint256"
        }
      ],
      "name": "approve",
      "outputs": [],
      "stateMutability": "nonpayable",
      "type": "function"
    },
    {
      "inputs": [],
      "name": "auctionContract",
      "outputs": [
        {
          "internalType": "address",
          "name": "",
          "type": "address"
        }
      ],
      "stateMutability": "view",
      "type": "function"
    },
    {
      "inputs": [
        {
          "internalType": "address",
          "name": "owner",
          "type": "address"
        }
      ],
      "name": "balanceOf",
      "outputs": [
        {
          "internalType": "uint256",
          "name": "",
          "type": "uint256"
        }
      ],
      "stateMutability": "view",
      "type": "function"
    },
    {
      "inputs": [],
      "name": "externalBaseURI",
      "outputs": [
        {
          "internalType": "string",
          "name": "",
          "type": "string"
        }
      ],
      "stateMutability": "pure",
      "type": "function"
    },
    {
      "inputs": [
        {
          "internalType": "uint256",
          "name": "tokenId",
          "type": "uint256"
        }
      ],
      "name": "getApproved",
      "outputs": [
        {
          "internalType": "address",
          "name": "",
          "type": "address"
        }
      ],
      "stateMutability": "view",
      "type": "function"
    },
    {
      "inputs": [
        {
          "internalType": "uint256",
          "name": "tokenId",
          "type": "uint256"
        }
      ],
      "name": "getStartingPrice",
      "outputs": [
        {
          "internalType": "uint256",
          "name": "",
          "type": "uint256"
        }
      ],
      "stateMutability": "view",
      "type": "function"
    },
    {
      "inputs": [
        {
          "internalType": "uint256",
          "name": "tokenId",
          "type": "uint256"
        }
      ],
      "name": "getTokenURIFromId",
      "outputs": [
        {
          "internalType": "string",
          "name": "",
          "type": "string"
        }
      ],
      "stateMutability": "pure",
      "type": "function"
    },
    {
      "inputs": [
        {
          "internalType": "address",
          "name": "owner",
          "type": "address"
        },
        {
          "internalType": "address",
          "name": "operator",
          "type": "address"
        }
      ],
      "name": "isApprovedForAll",
      "outputs": [
        {
          "internalType": "bool",
          "name": "",
          "type": "bool"
        }
      ],
      "stateMutability": "view",
      "type": "function"
    },
    {
      "inputs": [
        {
          "internalType": "address",
          "name": "to",
          "type": "address"
        },
        {
          "internalType": "uint256",
          "name": "tokenId",
          "type": "uint256"
        }
      ],
      "name": "mint",
      "outputs": [],
      "stateMutability": "nonpayable",
      "type": "function"
    },
    {
      "inputs": [],
      "name": "name",
      "outputs": [
        {
          "internalType": "string",
          "name": "",
          "type": "string"
        }
      ],
      "stateMutability": "view",
      "type": "function"
    },
    {
      "inputs": [],
      "name": "owner",
      "outputs": [
        {
          "internalType": "address",
          "name": "",
          "type": "address"
        }
      ],
      "stateMutability": "view",
      "type": "function"
    },
    {
      "inputs": [
        {
          "internalType": "uint256",
          "name": "tokenId",
          "type": "uint256"
        }
      ],
      "name": "ownerOf",
      "outputs": [
        {
          "internalType": "address",
          "name": "",
          "type": "address"
        }
      ],
      "stateMutability": "view",
      "type": "function"
    },
    {
      "inputs": [],
      "name": "renounceOwnership",
      "outputs": [],
      "stateMutability": "nonpayable",
      "type": "function"
    },
    {
      "inputs": [
        {
          "internalType": "address",
          "name": "from",
          "type": "address"
        },
        {
          "internalType": "address",
          "name": "to",
          "type": "address"
        },
        {
          "internalType": "uint256",
          "name": "tokenId",
          "type": "uint256"
        }
      ],
      "name": "safeTransferFrom",
      "outputs": [],
      "stateMutability": "nonpayable",
      "type": "function"
    },
    {
      "inputs": [
        {
          "internalType": "address",
          "name": "from",
          "type": "address"
        },
        {
          "internalType": "address",
          "name": "to",
          "type": "address"
        },
        {
          "internalType": "uint256",
          "name": "tokenId",
          "type": "uint256"
        },
        {
          "internalType": "bytes",
          "name": "data",
          "type": "bytes"
        }
      ],
      "name": "safeTransferFrom",
      "outputs": [],
      "stateMutability": "nonpayable",
      "type": "function"
    },
    {
      "inputs": [
        {
          "internalType": "address",
          "name": "operator",
          "type": "address"
        },
        {
          "internalType": "bool",
          "name": "approved",
          "type": "bool"
        }
      ],
      "name": "setApprovalForAll",
      "outputs": [],
      "stateMutability": "nonpayable",
      "type": "function"
    },
    {
      "inputs": [
        {
          "internalType": "address",
          "name": "_auction",
          "type": "address"
        }
      ],
      "name": "setAuctionContract",
      "outputs": [],
      "stateMutability": "nonpayable",
      "type": "function"
    },
    {
      "inputs": [],
      "name": "supplyStats",
      "outputs": [
        {
          "internalType": "uint256",
          "name": "total",
          "type": "uint256"
        },
        {
          "components": [
            {
              "internalType": "uint256",
              "name": "supply",
              "type": "uint256"
            },
            {
              "internalType": "uint256",
              "name": "availableSupply",
              "type": "uint256"
            },
            {
              "internalType": "uint256",
              "name": "startingPrice",
              "type": "uint256"
            }
          ],
          "internalType": "struct NFT.rarityStats",
          "name": "Common",
          "type": "tuple"
        },
        {
          "components": [
            {
              "internalType": "uint256",
              "name": "supply",
              "type": "uint256"
            },
            {
              "internalType": "uint256",
              "name": "availableSupply",
              "type": "uint256"
            },
            {
              "internalType": "uint256",
              "name": "startingPrice",
              "type": "uint256"
            }
          ],
          "internalType": "struct NFT.rarityStats",
          "name": "Uncommon",
          "type": "tuple"
        },
        {
          "components": [
            {
              "internalType": "uint256",
              "name": "supply",
              "type": "uint256"
            },
            {
              "internalType": "uint256",
              "name": "availableSupply",
              "type": "uint256"
            },
            {
              "internalType": "uint256",
              "name": "startingPrice",
              "type": "uint256"
            }
          ],
          "internalType": "struct NFT.rarityStats",
          "name": "Rare",
          "type": "tuple"
        },
        {
          "components": [
            {
              "internalType": "uint256",
              "name": "supply",
              "type": "uint256"
            },
            {
              "internalType": "uint256",
              "name": "availableSupply",
              "type": "uint256"
            },
            {
              "internalType": "uint256",
              "name": "startingPrice",
              "type": "uint256"
            }
          ],
          "internalType": "struct NFT.rarityStats",
          "name": "Epic",
          "type": "tuple"
        },
        {
          "components": [
            {
              "internalType": "uint256",
              "name": "supply",
              "type": "uint256"
            },
            {
              "internalType": "uint256",
              "name": "availableSupply",
              "type": "uint256"
            },
            {
              "internalType": "uint256",
              "name": "startingPrice",
              "type": "uint256"
            }
          ],
          "internalType": "struct NFT.rarityStats",
          "name": "Legendary",
          "type": "tuple"
        }
      ],
      "stateMutability": "view",
      "type": "function"
    },
    {
      "inputs": [
        {
          "internalType": "bytes4",
          "name": "interfaceId",
          "type": "bytes4"
        }
      ],
      "name": "supportsInterface",
      "outputs": [
        {
          "internalType": "bool",
          "name": "",
          "type": "bool"
        }
      ],
      "stateMutability": "view",
      "type": "function"
    },
    {
      "inputs": [],
      "name": "symbol",
      "outputs": [
        {
          "internalType": "string",
          "name": "",
          "type": "string"
        }
      ],
      "stateMutability": "view",
      "type": "function"
    },
    {
      "inputs": [
        {
          "internalType": "uint256",
          "name": "tokenId",
          "type": "uint256"
        }
      ],
      "name": "tokenURI",
      "outputs": [
        {
          "internalType": "string",
          "name": "",
          "type": "string"
        }
      ],
      "stateMutability": "view",
      "type": "function"
    },
    {
      "inputs": [
        {
          "internalType": "address",
          "name": "from",
          "type": "address"
        },
        {
          "internalType": "address",
          "name": "to",
          "type": "address"
        },
        {
          "internalType": "uint256",
          "name": "tokenId",
          "type": "uint256"
        }
      ],
      "name": "transferFrom",
      "outputs": [],
      "stateMutability": "nonpayable",
      "type": "function"
    },
    {
      "inputs": [
        {
          "internalType": "address",
          "name": "newOwner",
          "type": "address"
        }
      ],
      "name": "transferOwnership",
      "outputs": [],
      "stateMutability": "nonpayable",
      "type": "function"
    }
  ],
  "bytecode": "0x608060405234801561000f575f5ffd5b506040516118de3803806118de83398101604081905261002e91610288565b336040518060400160405280601381526020017f446e41204e46547320436f6c6c656374696f6e0000000000000000000000000081525060405180604001604052806003815260200162446e4160e81b815250815f908161008f9190610337565b50600161009c8282610337565b5050506001600160a01b0381166100cd57604051631e4fbdf760e01b81525f60048201526024015b60405180910390fd5b6100d681610237565b505f81116101165760405162461bcd60e51b815260206004820152600d60248201526c496e76616c696420707269636560981b60448201526064016100c4565b6104ac600755604080516060808201835261025680835260208084018290529284018590526008819055600955600a8490558251908101835261012c8082529181019190915290810161016a8360026103f1565b90528051600b55602080820151600c55604091820151600d55815160608101835260af808252918101919091529081016101a58360046103f1565b90528051600e55602080820151600f556040918201516010558151606081018352604b808252918101919091529081016101e08360086103f1565b90528051601155602080820151601255604091820151601355815160608101835260308082529181019190915290810161021b8360106103f1565b905280516014556020810151601555604001516016555061041a565b600680546001600160a01b038381166001600160a01b0319831681179093556040519116919082907f8be0079c531659141344cd1fd0a4f28419497f9722a3daafe3b4186f6b6457e0905f90a35050565b5f60208284031215610298575f5ffd5b5051919050565b634e487b7160e01b5f52604160045260245ffd5b600181811c908216806102c757607f821691505b6020821081036102e557634e487b7160e01b5f52602260045260245ffd5b50919050565b601f82111561033257805f5260205f20601f840160051c810160208510156103105750805b601f840160051c820191505b8181101561032f575f815560010161031c565b50505b505050565b81516001600160401b038111156103505761035061029f565b6103648161035e84546102b3565b846102eb565b6020601f821160018114610396575f831561037f5750848201515b5f19600385901b1c1916600184901b17845561032f565b5f84815260208120601f198516915b828110156103c557878501518255602094850194600190920191016103a5565b50848210156103e257868401515f19600387901b60f8161c191681555b50505050600190811b01905550565b808202811582820484141761041457634e487b7160e01b5f52601160045260245ffd5b92915050565b6114b7806104275f395ff3fe608060405234801561000f575f5ffd5b5060043610610148575f3560e01c80635b77c694116100bf578063a22cb46511610079578063a22cb46514610356578063ae8d070b14610369578063b88d4fde14610371578063c87b56dd14610384578063e985e9c514610397578063f2fde38b146103aa575f5ffd5b80635b77c6941461025c5780636352211e1461030f57806370a0823114610322578063715018a6146103355780638da5cb5b1461033d57806395d89b411461034e575f5ffd5b80630ab8afac116101105780630ab8afac146101dc5780630c04090f146101ef5780631b2a20f51461020257806323b872dd1461022357806340c10f191461023657806342842e0e14610249575f5ffd5b806301ffc9a71461014c578063023924c71461017457806306fdde0314610189578063081812fc1461019e578063095ea7b3146101c9575b5f5ffd5b61015f61015a36600461103b565b6103bd565b60405190151581526020015b60405180910390f35b610187610182366004611071565b61040e565b005b610191610493565b60405161016b91906110b8565b6101b16101ac3660046110ca565b610522565b6040516001600160a01b03909116815260200161016b565b6101876101d73660046110e1565b610549565b6017546101b1906001600160a01b031681565b6101916101fd3660046110ca565b610558565b6102156102103660046110ca565b6105b3565b60405190815260200161016b565b610187610231366004611109565b6105e8565b6101876102443660046110e1565b610671565b610187610257366004611109565b6106ed565b60075460408051606080820183526008548252600954602080840191909152600a548385015283518083018552600b548152600c5481830152600d548186015284518084018652600e548152600f548184015260105481870152855180850187526011548152601254818501526013548188015286519485018752601454855260155493850193909352601654958401959095526102fd9594909290919086565b60405161016b96959493929190611143565b6101b161031d3660046110ca565b610707565b610215610330366004611071565b610711565b610187610756565b6006546001600160a01b03166101b1565b610191610769565b6101876103643660046111e3565b610778565b610191610783565b61018761037f366004611230565b610792565b6101916103923660046110ca565b6107aa565b61015f6103a536600461130d565b6107bf565b6101876103b8366004611071565b6107ec565b5f6001600160e01b031982166380ac58cd60e01b14806103ed57506001600160e01b03198216635b5e139f60e01b145b8061040857506301ffc9a760e01b6001600160e01b03198316145b92915050565b610416610829565b6001600160a01b0381166104715760405162461bcd60e51b815260206004820152601860248201527f5a65726f2061646472657373206e6f7420616c6c6f776564000000000000000060448201526064015b60405180910390fd5b601780546001600160a01b0319166001600160a01b0392909216919091179055565b60605f80546104a19061133e565b80601f01602080910402602001604051908101604052809291908181526020018280546104cd9061133e565b80156105185780601f106104ef57610100808354040283529160200191610518565b820191905f5260205f20905b8154815290600101906020018083116104fb57829003601f168201915b5050505050905090565b5f61052c82610856565b505f828152600460205260409020546001600160a01b0316610408565b61055482823361088e565b5050565b60605f61056361089b565b90505f8151116105815760405180602001604052805f8152506105ac565b8061058b846108bb565b60405160200161059c92919061138d565b6040516020818303038152906040525b9392505050565b5f5f6105be8361094b565b60408051606081018252825481526001830154602082015260029092015491018190529392505050565b6001600160a01b03821661061157604051633250574960e11b81525f6004820152602401610468565b5f61061d8383336109e9565b9050836001600160a01b0316816001600160a01b03161461066b576040516364283d7b60e01b81526001600160a01b0380861660048301526024820184905282166044820152606401610468565b50505050565b6017546001600160a01b031633146106bc5760405162461bcd60e51b815260206004820152600e60248201526d139bdd08185d5d1a1bdc9a5e995960921b6044820152606401610468565b5f6106c68261094b565b6001810180549192505f6106d9836113b7565b91905055506106e88383610adb565b505050565b6106e883838360405180602001604052805f815250610792565b5f61040882610856565b5f6001600160a01b03821661073b576040516322718ad960e21b81525f6004820152602401610468565b506001600160a01b03165f9081526003602052604090205490565b61075e610829565b6107675f610af4565b565b6060600180546104a19061133e565b610554338383610b45565b606061078d61089b565b905090565b61079d8484846105e8565b61066b3385858585610be3565b60606107b582610856565b5061040882610558565b6001600160a01b039182165f90815260056020908152604080832093909416825291909152205460ff1690565b6107f4610829565b6001600160a01b03811661081d57604051631e4fbdf760e01b81525f6004820152602401610468565b61082681610af4565b50565b6006546001600160a01b031633146107675760405163118cdaa760e01b8152336004820152602401610468565b5f818152600260205260408120546001600160a01b03168061040857604051637e27328960e01b815260048101849052602401610468565b6106e88383836001610d0b565b606060405180608001604052806052815260200161143060529139905090565b60605f6108c783610e0f565b60010190505f8167ffffffffffffffff8111156108e6576108e661121c565b6040519080825280601f01601f191660200182016040528015610910576020820181803683370190505b5090508181016020015b5f19016f181899199a1a9b1b9c1cb0b131b232b360811b600a86061a8153600a850494508461091a57509392505050565b5f5f8211801561095d57506104ae8211155b61099b5760405162461bcd60e51b815260206004820152600f60248201526e125b9d985b1a5908151bdad95b9259608a1b6044820152606401610468565b6102568211156109ad57506008919050565b61012a8211156109bf5750600b919050565b607b8211156109d05750600e919050565b60308211156109e157506011919050565b506014919050565b5f828152600260205260408120546001600160a01b0390811690831615610a1557610a15818486610ee6565b6001600160a01b03811615610a4f57610a305f855f5f610d0b565b6001600160a01b0381165f90815260036020526040902080545f190190555b6001600160a01b03851615610a7d576001600160a01b0385165f908152600360205260409020805460010190555b5f8481526002602052604080822080546001600160a01b0319166001600160a01b0389811691821790925591518793918516917fddf252ad1be2c89b69c2b068fc378daa952ba7f163c4a11628f55a4df523b3ef91a4949350505050565b610554828260405180602001604052805f815250610f4a565b600680546001600160a01b038381166001600160a01b0319831681179093556040519116919082907f8be0079c531659141344cd1fd0a4f28419497f9722a3daafe3b4186f6b6457e0905f90a35050565b6001600160a01b038216610b7757604051630b61174360e31b81526001600160a01b0383166004820152602401610468565b6001600160a01b038381165f81815260056020908152604080832094871680845294825291829020805460ff191686151590811790915591519182527f17307eab39ab6107e8899845ad3d59bd9653f200f220920489ca2b5937696c31910160405180910390a3505050565b6001600160a01b0383163b15610d0457604051630a85bd0160e11b81526001600160a01b0384169063150b7a0290610c259088908890879087906004016113d8565b6020604051808303815f875af1925050508015610c5f575060408051601f3d908101601f19168201909252610c5c91810190611414565b60015b610cc6573d808015610c8c576040519150601f19603f3d011682016040523d82523d5f602084013e610c91565b606091505b5080515f03610cbe57604051633250574960e11b81526001600160a01b0385166004820152602401610468565b805160208201fd5b6001600160e01b03198116630a85bd0160e11b14610d0257604051633250574960e11b81526001600160a01b0385166004820152602401610468565b505b5050505050565b8080610d1f57506001600160a01b03821615155b15610de0575f610d2e84610856565b90506001600160a01b03831615801590610d5a5750826001600160a01b0316816001600160a01b031614155b8015610d6d5750610d6b81846107bf565b155b15610d965760405163a9fbf51f60e01b81526001600160a01b0384166004820152602401610468565b8115610dde5783856001600160a01b0316826001600160a01b03167f8c5be1e5ebec7d5bd14f71427d1e84f3dd0314c0f7b2291e5b200ac8c7c3b92560405160405180910390a45b505b50505f90815260046020526040902080546001600160a01b0319166001600160a01b0392909216919091179055565b5f8072184f03e93ff9f4daa797ed6e38ed64bf6a1f0160401b8310610e4d5772184f03e93ff9f4daa797ed6e38ed64bf6a1f0160401b830492506040015b6d04ee2d6d415b85acef81000000008310610e79576d04ee2d6d415b85acef8100000000830492506020015b662386f26fc100008310610e9757662386f26fc10000830492506010015b6305f5e1008310610eaf576305f5e100830492506008015b6127108310610ec357612710830492506004015b60648310610ed5576064830492506002015b600a83106104085760010192915050565b610ef1838383610f61565b6106e8576001600160a01b038316610f1f57604051637e27328960e01b815260048101829052602401610468565b60405163177e802f60e01b81526001600160a01b038316600482015260248101829052604401610468565b610f548383610fc5565b6106e8335f858585610be3565b5f6001600160a01b03831615801590610fbd5750826001600160a01b0316846001600160a01b03161480610f9a5750610f9a84846107bf565b80610fbd57505f828152600460205260409020546001600160a01b038481169116145b949350505050565b6001600160a01b038216610fee57604051633250574960e11b81525f6004820152602401610468565b5f610ffa83835f6109e9565b90506001600160a01b038116156106e8576040516339e3563760e11b81525f6004820152602401610468565b6001600160e01b031981168114610826575f5ffd5b5f6020828403121561104b575f5ffd5b81356105ac81611026565b80356001600160a01b038116811461106c575f5ffd5b919050565b5f60208284031215611081575f5ffd5b6105ac82611056565b5f81518084528060208401602086015e5f602082860101526020601f19601f83011685010191505092915050565b602081525f6105ac602083018461108a565b5f602082840312156110da575f5ffd5b5035919050565b5f5f604083850312156110f2575f5ffd5b6110fb83611056565b946020939093013593505050565b5f5f5f6060848603121561111b575f5ffd5b61112484611056565b925061113260208501611056565b929592945050506040919091013590565b868152610200810161116c60208301888051825260208082015190830152604090810151910152565b8551608083015260208087015160a084015260409687015160c0840152855160e084015285810151610100840152948601516101208301528351610140830152838501516101608301529285015161018082015281516101a0820152928101516101c0840152909201516101e09091015292915050565b5f5f604083850312156111f4575f5ffd5b6111fd83611056565b915060208301358015158114611211575f5ffd5b809150509250929050565b634e487b7160e01b5f52604160045260245ffd5b5f5f5f5f60808587031215611243575f5ffd5b61124c85611056565b935061125a60208601611056565b925060408501359150606085013567ffffffffffffffff81111561127c575f5ffd5b8501601f8101871361128c575f5ffd5b803567ffffffffffffffff8111156112a6576112a661121c565b604051601f8201601f19908116603f0116810167ffffffffffffffff811182821017156112d5576112d561121c565b6040528181528282016020018910156112ec575f5ffd5b816020840160208301375f6020838301015280935050505092959194509250565b5f5f6040838503121561131e575f5ffd5b61132783611056565b915061133560208401611056565b90509250929050565b600181811c9082168061135257607f821691505b60208210810361137057634e487b7160e01b5f52602260045260245ffd5b50919050565b5f81518060208401855e5f93019283525090919050565b5f6113a161139b8386611376565b84611376565b64173539b7b760d91b8152600501949350505050565b5f816113d157634e487b7160e01b5f52601160045260245ffd5b505f190190565b6001600160a01b03858116825284166020820152604081018390526080606082018190525f9061140a9083018461108a565b9695505050505050565b5f60208284031215611424575f5ffd5b81516105ac8161102656fe68747470733a2f2f62616679626569617336713361666d6669666a3463627862616d7668696c3261637a6a62326d64717273323568743278746372686d6a63643232652e697066732e7733732e6c696e6b2fa2646970667358221220069491ebf6ca3f1ebc80b347321f42b621a1cdb1b8e176cb25c0a4d20326acd964736f6c634300081c0033",
  "linkReferences": {},
  "deployedLinkReferences": {},
  "immutableReferences": {},
  "inputSourceName": "project/contracts/nft.sol",
  "buildInfoId": "solc-0_8_28-56031b86fccc00c8f48c2fdde8a1121fdcaf1972"
}